:020000040800F2
:100000000807002001010008431800082B1700080A
:1000100041180008AD070008C121000800000000D9
:100020000000000000000000000000002F1A00087F
:100030006D08000800000000651800082F1F000868
:100040001B0100081B0100081B0100081B01000820
:100050001B0100081B0100081B0100081B01000810
:100060001B0100081B0100081B0100081B01000800
:100070001B0100081B0100081B0100081B010008F0
:100080001B0100081B0100081B0100081B010008E0
:100090001B0100081B0100081B0100081B010008D0
:1000A0001B0100081B0100081B0100081B010008C0
:1000B0001B0100081B0100081B0100081B010008B0
:1000C0001B0100081B0100081B0100081B010008A0
:1000D0001B0100081B0100081B0100081B01000890
:1000E0001B0100081B0100081B010008DFF80CD0F1
:1000F00000F0CCFA00480047012B00080807002058
:100100000648804706480047FEE7FEE7FEE7FEE7B1
:10011000FEE7FEE7FEE7FEE7FEE7FEE7A51F0008B5
:10012000ED000008202A04DB203A21FA02F0002129
:10013000704721FA02F3D040C2F1200291400843F7
:100140001946704740EA01039B0703D009E008C93C
:10015000121F08C0042AFAD203E011F8013B00F88C
:10016000013B521EF9D27047D2B201E000F8012BD8
:10017000491EFBD270470022F6E710B513460A4627
:1001800004461946FFF7F0FF204610BD80EA010241
:1001900010B502F00043400022D04A001FD0010EEB
:1001A00001EB1261C0F35600C2F3560240F40000A6
:1001B00042F40002A0FB022000047F39140400D0A6
:1001C000401C50EA124001D44000491EC2B20C0645
:1001D00004EBD010401C4008802A02D003E000202D
:1001E00010BD20F00100002900DA0020184310BDE6
:1001F00096230022114600F063B800F0004230F070
:1002000000400AD0C10D01F56071C0F3160042EA4A
:100210000151C20840071143704700200146704752
:1002200030B50B46014600202022012409E021FAC6
:1002300002F59D4205D303FA02F5491B04FA02F5C3
:100240002844151EA2F10102F1DC30BD2DE9F05F5A
:100250000546002092469B46884606468146402435
:100260001BE02846414647462246FFF75BFF5346C0
:100270005A46C01A914110D311461846224600F042
:1002800017FA2D1A67EB01084F462246012000217C
:1002900000F00EFA17EB00094E41201EA4F10104F4
:1002A000DFDC484631462A464346BDE8F09F002938
:1002B000A8BF7047401C490008BF20F001007047EC
:1002C00010B4B0FA80FC00FA0CF050EA010404BF4C
:1002D00010BC704749B1CCF1200421FA04F411FAA2
:1002E0000CF118BF012121430843A3EB0C01CB1DE6
:1002F0004FEA00614FEA102042BF002010BC704757
:1003000000EBC35010440029A4BF10BC7047401C30
:10031000490008BF20F0010010BC70472DE9FE4FD6
:10032000804681EA0300C00F0C46009021F0004196
:1003300023F00045B8EB0200A94105D24046214612
:1003400090461C460B46024623F00040104347D01F
:10035000270DC7F30A00C3F30A510290401A019017
:1003600040286BDAC3F3130040F4801B00989246D8
:1003700020B10023D2EB030A63EB0B0B0198594623
:10038000C0F14002504600F093F906460D46504633
:100390005946019A00F09BF910EB080061410024D6
:1003A00087EA115284EAE7731A4340D0009A62B395
:1003B000019A012A4FEA075215DC001B61EB02018A
:1003C0004FF0004202EA0752CDE90042001C41F51D
:1003D000801132462B4600F09BF903B0BDE8F08F48
:1003E00040462146F9E7001B61EB0201001C41F584
:1003F000801300185B412018A2F5001747EB03019A
:1004000040EAD570B6196D4111E06D084FEA360625
:1004100045EAC0754FEA0752001B61EB0201001C60
:1004200041F5801149084FEA300000195141324628
:100430002B4603B0BDE8F04F00F05BB900980122F5
:1004400040000023D0EB020263EBE07300982146EA
:100450004FEAE074B8EB000061EB0401E9E783F0D8
:1004600000435BE781F0004158E72DE9FE4F81EA48
:10047000030404F0004421F0004100944FF0000B0D
:1004800023F0004350EA01045ED052EA03045BD03B
:10049000C3F30A54C1F30A552C44A4F2F334019473
:1004A000A0FB0254C1F3130141F48011C3F3130301
:1004B00043F4801301FB024400FB034E840A970AB5
:1004C00044EA815447EA8357A4FB076802958D0AE2
:1004D00005FB07854FEA932C04FB0C542705029D6E
:1004E0004FEA065847EA1637B5EB08056EEB070CDE
:1004F000870E920E47EA811742EA8312A7FB020198
:10050000B6EB0B0164EB00042B0D43EA0C335E18D1
:1005100044EB1C50DA465146E7FB0201C5F31304D5
:100520004FEA0B3343EA14534FEA0432019C43EA87
:100530000603A4F10C040294009CCDE900B400F081
:10054000E7F803B0BDE8F08F00200146F9E72DE998
:10055000F04D81EA030404F0004B21F000451446FD
:100560004FF0000A23F0004150EA050220D054EA7F
:1005700001021DD0C5F30A570246C5F31303C1F3A8
:100580001300C1F30A5640F4801543F48013A7EB1F
:100590000608101BD64608F2FD3873EB050002D39F
:1005A00008F1010801E092185B41B8F1000F03DA8D
:1005B00000200146BDE8F08D00204FF48011064672
:1005C00084460EE0171B73EB050705D3121B63EB84
:1005D000050306434CEA010C49084FEA3000921823
:1005E0005B4150EA0107EDD152EA030012D082EAE2
:1005F000040083EA0501084305D0101BAB4106D275
:100600000122002306E000224FF0004302E06FF0D9
:10061000010253101AEB06004CEB085110EB0A00D4
:1006200041EB0B01BDE8F04D00F063B8C1F30A5295
:10063000C1F3130140F2FF3341F480119A4202DA10
:1006400000200146704740F233439A42A2F23342FF
:1006500002DC5242FFF766BD00F02AB830B5041E36
:1006600071F1000404DB4FF00044404264EB0101EF
:10067000141E73F1000405DB1C464FF00043524288
:1006800063EB0403994208BF904230BD064C074D0E
:1006900006E0E06840F0010394E807009847103452
:1006A000AC42F6D3FFF726FD242F0008442F0008A4
:1006B000202A04DB203A00FA02F100207047914022
:1006C000C2F1200320FA03F3194390407047202A17
:1006D00006DBCB17203A41FA02F043EAE07306E06A
:1006E00041FA02F3D040C2F120029140084319467A
:1006F000704710B5141E73F1000408DA401C41F174
:10070000000192185B411A4301D120F0010010BD95
:100710002DE9F04D92469B4611B1B1FA81F202E00B
:10072000B0FA80F220329046FFF7C2FF04460F462F
:1007300040EA0A0041EA0B0153465A46084313D0E7
:10074000114653EA010019D0C8F140025046FFF7A4
:10075000E9FC05460E46504659464246FFF7A8FFBB
:10076000084305D0012004E020463946BDE8F08D5D
:100770000020054346EAE0762C4337430A98630598
:10078000E40AA0EB08000022FD0A44EA47540A30BC
:1007900002D500200146E9E7010510196941DDE9AC
:1007A000084500196941BDE8F04DA2E7FEE70000E9
:1007B00010B500F05DF801224021044800F069F90D
:1007C000BDE810404FF47A7000F06EB8000C0140A4
:1007D0000E48016821F080710160016841F080716C
:1007E00001600B48016821F001010160016841F0DE
:1007F000010101600021416000BF00BF00BF4068EF
:1008000008B100207047012070470000FCED00E0B7
:10081000001000E031B5084D6C6800F0A3FA0749FC
:10082000B0FBF1F000994843009068680099001B04
:100830008842FAD338BD0000001000E040420F00AB
:1008400031B5084D6C6800F08DFA0749B0FBF1F046
:1008500000994843009068680099001B8842FAD3C9
:1008600038BD0000001000E040420F00704700005B
:100870000B4800B5816985B041F00801816180694C
:10088000694600F00800049040200090012001908B
:1008900003200390034800F019F805B000BD0000E4
:1008A00000100240000C014070B5044600F0F6F85C
:1008B0000546601C02D004480078044400F0EEF8BD
:1008C000401BA042FAD370BD280000202DE9F84F4C
:1008D000DFF890A100220AF1040B144601274FF023
:1008E0000F090BF1040E00BF0B6807FA04F52B404B
:1008F000AB4274D1DFF870C14E68A6EB0C086645B8
:100900002BD00DDC032E34D005DC36B3012E19D0EC
:10091000022E2FD11BE0112E16D0122E2AD119E053
:10092000B8F5881F19D006DCB8F5803F15D0B8F5AA
:10093000801F1FD111E0B8F5001F0ED0B8F5041FBD
:1009400018D10AE0CA6815E0CA68121D12E0CA6828
:1009500008320FE0CA680C320CE08A682AB1012A1A
:100960004FF0080203D0456104E0042202E0056173
:1009700000E00022FF2B01D8064601E000F104064A
:100980004FEA840501D9A5F12005D6F800C009FA7F
:1009900005F82CEA080C02FA05F54CEA050CC6F835
:1009A00000C04D68ED0057D5304DAE6946F00106E8
:1009B000AE61AD6924F0030605F0010500952C4DEC
:1009C00006EB050CDCF80850A6074FEA167809FA82
:1009D00008F6B543274EB04202D1002610E03BE0B6
:1009E000254EB04201D101260AE0244EB04201D189
:1009F000022605E0224EB04201D1032600E0042683
:100A000006FA08F62E43CCF808604D68DAF8006064
:100A1000ED03554601D51E4300E09E432E604D6810
:100A2000DBF80060AD035D4601D51E4300E09E4348
:100A30002E604D68DEF80060ED02754601D51E435C
:100A400000E09E432E604D68AD020E4D2E6801D52C
:100A50001E4300E09E432E60641C102CFFF444AF44
:100A6000BDE8F88F000401400000111000100240A2
:100A70000000014000080140000C0140001001404E
:100A8000001401400C0401408068084000D001209F
:100A900070470AB1016170470904FBE701488068AB
:100AA0007047000028000020024881680278114445
:100AB0008160704728000020074810B5016841F0A8
:100AC00010010160032000F091F8002000F006F80A
:100AD00000F024F8002010BD0020024070B50D4D3C
:100AE00004464FF47A712878B1FBF0F00A4909689E
:100AF000B1FBF0F000F031FD48B9102C07D2002214
:100B00002146501E00F052F800206C6070BD01209C
:100B100070BD00002800002034000020214808B5E6
:100B2000816941F001018161816901F00101009158
:100B3000C16941F08051C161C06900F080500090EE
:100B4000032000F053F8002211466FF00B0000F074
:100B50002DF8002211466FF00A0000F027F800225D
:100B600011466FF0090000F021F800221146501FD5
:100B700000F01CF800221146101F00F017F80022A8
:100B80001146901E00F012F800221146501E00F08F
:100B90000DF80548416821F0E06141F000714160C5
:100BA00008BD00000010024000000140F0B40E4BF0
:100BB0001B680C46C3F30223C3F10705042D00D9BB
:100BC0000425191D072901D2002300E0DB1E0126A0
:100BD00006FA05F1491E214099409E40761E1640B6
:100BE0003143F0BC00F02EBE0CED00E0064900F0F1
:100BF000070208684FF6FF03184040EA0220034A44
:100C000010430860704700000CED00E00000FA059A
:100C10002DE9F047DFF83C8105460E46D8F8000084
:100C200000F00700B0420CD2D8F8001021F0070104
:100C30003143C8F80010D8F8000000F00700B042B7
:100C400063D12878444C800705D56068A96820F0F6
:100C5000F000084360602878C00745D06868012824
:100C600016D02168022816D0890700294DDA61685C
:100C700021F0030101436160FFF710FF6968074637
:100C800041F2883001290FD00229814619D027E08E
:100C900021688903E9E78901E7E700BFFFF7FEFE66
:100CA000C11B494501D918E081466068C0F3810045
:100CB0000128F3D118E000BFFFF7F0FEC11B494542
:100CC0000BD86068C0F381000228F5D10CE000BFAA
:100CD000FFF7E4FEC11B494502D90320BDE8F087B8
:100CE000606810F00C0FF3D1D8F80010404601F006
:100CF0000701B1420BD9016821F0070131430160BE
:100D0000006800F00700B04201D00120E6E7287833
:100D1000400705D56068E96820F4E060084360603A
:100D20002878000706D56068296920F4605040EAF9
:100D3000C100606000F03CF86168084AC1F303112B
:100D4000515CC840064908600020FFF7C7FE00203C
:100D5000C4E7000000200240001002400C2F0008F1
:100D60003400002001480068704700003400002073
:100D70000448054900684968044AC1F30221515CEE
:100D8000C840704734000020001002401C2F0008AB
:100D90000448054900684968044AC1F3C221515C0E
:100DA000C840704734000020001002401C2F00088B
:100DB00012A185B00FC98DE80F0014A0144A006875
:100DC00004905168134801F00C03042B10D0082B39
:100DD0000ED1C1F38343C9031DF803000AD551683E
:100DE00004AAC1F34041515C0A4A5043B0FBF1F000
:100DF00005B0704708494843FAE7000002030405BC
:100E0000060708090A0B0C0D0E0F10100102000056
:100E10000010024000127A0000093D002DE9F84F51
:100E200004460078B94DC00748D06868C0F3810017
:100E3000012807D06868C0F38100022809D16868DA
:100E4000C00306D52868800338D5606800286FD0B5
:100E500034E06068B0F5803F0BD010B1B0F5A02F42
:100E600011D0286820F480302860286820F4802081
:100E700002E0286840F480302860606888B1FFF79D
:100E80000DFE064609E0286840F480202860F0E75F
:100E9000FFF704FE801B642875D828688003F7D507
:100EA0000CE0FFF7FBFD064605E000BFFFF7F6FD8F
:100EB000801B6428F0D828688003F7D42078944EEB
:100EC00080074FF001094FF000083BD5686810F02B
:100ED0000C0F07D06868C0F38100022809D1686848
:100EE000C00306D42868800714D5206901281FD1C3
:100EF00010E02069B0B1C6F80090FFF7CFFD0746BB
:100F000005E000BFFFF7CAFDC01B0228C4D828684F
:100F10008007F7D52868616920F0F80040EAC10031
:100F200028600FE0C6F80080FFF7B8FD074606E02E
:100F3000E9E000BFFFF7B2FDC01B022823D82868F4
:100F40008007F7D4207800072CD57248A169D9B161
:100F5000C0F80090FFF7A2FD074604E0FFF79EFDF2
:100F6000C01B02280FD8686A8007F7D56A484FF47B
:100F7000FA510068B0FBF1F0009000BF0098411EEC
:100F80000091FAD20EE080E0C0F80080FFF786FD05
:100F9000074604E0FFF782FDC01B022875D8686A87
:100FA0008007F7D42078400760D5E8690027C000A3
:100FB00008D4E86940F08050E861E869012700F052
:100FC0008050009055480168C90513D401688346D4
:100FD00041F480710160FFF761FD824606E000BFC9
:100FE000FFF75CFDA0EB0A0064284ED8DBF8000098
:100FF000C005F5D5E06801280AD008B1052813D04E
:10100000286A20F001002862286A20F0040002E02B
:10101000286A40F001002862E06841F2883B98B1FC
:10102000FFF73CFD82460BE0286A40F0040028628E
:10103000EEE700BFFFF732FDA0EB0A0159455AD891
:10104000286A8007F6D50CE0FFF728FD824605E008
:10105000FFF724FDA0EB0A0159454CD8286A800708
:10106000F6D41FB1E86920F08050E861E06988B3E8
:101070006968C1F38101022945D00228C6F8608061
:1010800004D0FFF70BFD044638E034E0FFF706FD1F
:10109000074604E0FFF702FDC01B02282BD8286892
:1010A0008001F7D4206AB0F5803F05D16868A16857
:1010B00020F4003008436860D4E9080108436968F7
:1010C00021F4741108436860C6F86090FFF7E6FCED
:1010D000044606E015E000BFFFF7E0FC001B022815
:1010E00009D828688001F7D50BE000BFFFF7D6FCD0
:1010F000001B022802D90320BDE8F88F2868800170
:10110000F4D40020F8E70120F6E7000000100240C8
:10111000000042428004424234000020007000403F
:1011200090F85100704770B5040005D00025A56205
:1011300094F8510010B104E0012070BD204600F089
:1011400033F8022084F851002068016821F0400142
:101150000160D4E901010843D4E9031211430843B3
:1011600061690843218B01F400710843E169084378
:10117000216A0843A16A084321680860A069042124
:1011800001EA1040616A0843216848602168E06A0A
:1011900008612068C16921F40061C16165650120B1
:1011A00084F85100002070BD10B50068114986B068
:1011B00088421CD11048816941F480518161806965
:1011C0000E4C00F480500490A0200090022001906A
:1011D0000320039069462046FFF778FB002140205A
:1011E000CDE90001029169462046FFF76FFB06B08A
:1011F00010BD000000300140001002400008014016
:101200002DE9F84F044690F85000002699461746FD
:101210000D4601280DD04FF0010B84F850B0FFF7B8
:101220003DFC804694F85100B246012804D00226C5
:1012300094E00220BDE8F88F002D7BD0002F79D0FC
:10124000032084F85100C4F854A02563A786E786DC
:10125000C4F838A0A4F83CA0A4F83EA0C4F844A068
:10126000C4F840A0A068B0F5004F04D12068016820
:1012700041F48041016020680168490603D4016897
:1012800041F040010160E068B0F5006F606804D093
:1012900030B3E08E012823D03EE010B1E08E01286B
:1012A0001AD135F8021B206805E02068816889079B
:1012B00006D535F8021BC160E08E401EE0860BE0CB
:1012C000B9F1000F34D0B9F1FF3F05D0FFF7E6FBCD
:1012D000A0EB080149452BD2E08E0028E5D11EE0A5
:1012E000216815F8010B087306E0206881688907FA
:1012F00006D515F8011B0173E08E401EE0860BE059
:10130000B9F1000F14D0B9F1FF3F05D0FFF7C6FBCC
:10131000A0EB080149450BD2E08E0028E5D14B46F1
:10132000012202212046CDF8008000F035FB10B1EB
:10133000032613E011E042464946204600F01CFB1C
:1013400018B101262020606508E0A06818B920685F
:10135000C16880680090606D00B1012684F851B0CA
:1013600084F850A0304665E72DE9F84F044690F820
:10137000500000260A9F9A4693460D464FF00108FA
:1013800001280ED0012084F85000FFF787FB81462A
:1013900094F85100616801280CD0B1F5827F07D123
:1013A00002E00220BDE8F88FA16809B9042801D045
:1013B0000226BDE055B1BBF1000F07D0BAF1000F16
:1013C00004D094F85100012802D004E00126AFE0D7
:1013D000052084F8510000206065C4F838B0A4F8F6
:1013E0003EA0A4F83CA02563A4F836A0A4F834A03D
:1013F0002064606420680168490603D4016841F0F4
:1014000040010160E068B0F5006F606804D0E8B3A7
:10141000E08E01283BD06AE010B1E08E01282ED189
:10142000216835F8020BC860E08E401EE08626E099
:10143000B8F1000F0DD0E08E58B12068816889079F
:1014400007D535F8021BC160E08E401EE0864FF0E4
:101450000008E08F58B120688168C90707D0C068CC
:101460002BF8020BE08F401EE0874FF00108781C3C
:1014700005D0FFF713FBA0EB0900B84246D2E08E7F
:101480000028D5D1E08F0028D2D136E0FFE72168CF
:1014900015F8010B0873E08E401EE08627E000BFC0
:1014A000B8F1000F0DD0E08E58B12068816889072F
:1014B00007D515F8011B0173E08E401EE0864FF042
:1014C0000008E08F58B120688168C90707D0C0685C
:1014D0000BF8010BE08F401EE0874FF00108781CED
:1014E00005D0FFF7DBFAA0EB0900B8420ED2E08E80
:1014F0000028D5D1E08F0028D2D13B46012202211D
:101500002046CDF8009000F047FA08B103260FE01E
:101510004A463946204600F02FFA18B1012620200D
:10152000606505E0A06818B92068C168806800900F
:10153000012084F85100002084F85000304631E743
:101540004FF0E0210428086903D020F0040008616E
:10155000704740F00400FAE7704710B5401EB0F144
:10156000807F01D3012010BD4FF0E02460610F2186
:10157000601700F067F90020A061072020610020BB
:1015800010BD10B5FFF7E8FF10BD70B5040004D022
:1015900094F83900002510B106E0012070BD84F8F0
:1015A0003850204600F022F8242084F839002068C2
:1015B000C16821F40051C160204600F017FD206889
:1015C000016921F4904101612068416921F02A01FB
:1015D00041612068C16841F40051C160E563202089
:1015E00084F8390084F83A00002070BD70B51C4EB4
:1015F000036800241B49022003221B4D86B0B3421E
:1016000011D18B6943F480438B618969039201F4A2
:10161000804104910102CDE9001069462846FFF798
:1016200055F9281513E0114EB34217D1CB6943F495
:101630000033CB61C969039201F4003104910421A4
:10164000CDE9001069462846FFF740F90820CDE9AA
:101650000004694628460294FFF738F906B070BDC9
:1016600000380140001002400008014000440040E2
:101670002DE9F843044690F839001F4616460D46FA
:10168000202850D1A5B19EB194F8380001284AD045
:10169000012084F838004FF00008C4F83C80212075
:1016A00084F83900FFF7FAF9A6848146E68426E03B
:1016B0000120BDE8F883E08C401EE084A0684B4622
:1016C000B0F5805F4FF000024FF080012046009798
:1016D00003D000F043FDE8B90DE000F03FFDC8B9CC
:1016E00028882168C0F308004860206908B16D1C93
:1016F00005E0AD1C03E0216815F8010B4860E08CA3
:101700000028D8D14B46002240212046009700F007
:1017100025FD08B10320CCE7202084F8390084F8A7
:1017200038800020C5E70220C3E7FEE72DE9F0433B
:101730002F4885B0816941F010018161816901F014
:1017400010010491816941F020018161816901F0FA
:1017500020010491816941F004018161816901F0F6
:1017600004010491816941F00801816180690122CD
:1017700000F008001F4F5403049021463846FFF73D
:1017800088F9DFF87480012210214046FFF781F9C3
:10179000DFF86890012207214846FFF77AF9012512
:1017A000CDE9004500240226CDE9024669463846C7
:1017B000FFF78CF81020CDE90005CDE90246694617
:1017C0004046FFF783F80720CDE90005CDE9024642
:1017D00069464846FFF77AF84020CDE9000469469B
:1017E00048460294FFF772F805B0BDE8F0830000A8
:1017F000001002400010014000080140000C0140B0
:101800000E4810B50C4901604FF48271416000210F
:101810008160C1604FF400720161C0E905120822C5
:10182000C0E90721416281620A21C162FFF77BFCA6
:10183000002800D0FEE710BD003001403C00002031
:10184000FEE770470907090E002806DA00F00F00CE
:1018500000F1E02080F8141D704700F1E02080F8CE
:1018600000147047704700002DE9F0410025154E27
:101870002C46012740213046FFF706F90028F9D011
:101880001E20FEF7C7FF40213046FFF7FDF8012874
:101890000BD0C4F1070007FA00F08543641CE4B2E2
:1018A000082CE7D32846BDE8F08140213046FFF7F9
:1018B000EBF80128F9D0C4F1070007FA00F0C0B234
:1018C0000543EBE7000C01407FB50446FEF7D0FF6F
:1018D000284D002240212846FFF7DBF81420FEF7B0
:1018E000E3FF012240212846FFF7D3F81E20FEF730
:1018F00091FF402000900020019003200390694652
:101900002846FEF7E3FF40212846FFF7BDF870BBED
:1019100040212846FFF7B8F80028F9D04021284692
:10192000FFF7B2F80128F9D0FFF79EFFA070FFF78C
:101930009BFFE070FFF798FF2070FFF795FF607046
:10194000FFF792FF2071FEF793FF01224021284606
:10195000FFF79FF8A078E178627808442178114475
:1019600008442179884203D1012004B070BDFFE70B
:101970000020FAE7000C014038B50B4600920446FF
:101980000022802100F008F8002804D0606D40F0AB
:1019900020006065032038BD2DE9F0411D46174643
:1019A0000E460446DDF8188035E0681C33D02DB1B2
:1019B000FFF774F8A0EB0800A8422CD32068416818
:1019C00021F0E00141606068B0F5827F0BD1A06832
:1019D000B0F5004F02D0B0F5806F04D120680168E7
:1019E00021F040010160A06AB0F5005F0AD12068D3
:1019F00001684DF6FF72114001602068016841F4F2
:101A000000510160012084F85100002084F850004A
:101A10000320BDE8F0812068806836EA000004D029
:101A20000020B842C1D10020F3E70120F9E7704758
:101A300070B515460E460446017200F0DBF98422AB
:101A40004D21204600F027F9FF222421204600F0F6
:101A500022F901224021204600F01DF93F221121E8
:101A6000204600F018F9204600F042F932462221C3
:101A7000204600F010F90F21204600F0FDF8024644
:101A80000D21204600F007F98D220121204600F0AB
:101A900002F9002084F80A011821204600F0ECF831
:101AA000400703D503206072012070BD6D1E03D076
:101AB000012000F0ACF9EFE7206800F0B4F920460F
:101AC00000F098F9002070BD70B516460C4605462A
:101AD000017200F08FF987224D21284600F0DBF8D3
:101AE00000222421284600F0D6F841224021284631
:101AF00000F0D1F8284600F0FBF8F7221121284623
:101B000000F0C9F822462221284600F0C4F80E2130
:101B1000284600F0B1F802460D21284600F0BBF837
:101B20002221284600F0A8F8A04203D102206872C2
:101B3000012070BD761EF3D1286800F074F92846A4
:101B400000F058F9002070BD70B50446006800F040
:101B500060F908B304F10A004FF480710646FEF7FD
:101B60000AFB1021204600F087F802460D2120468E
:101B700000F091F8A07990B11321204600F07CF894
:101B800005462B4632460021204600F035F884F801
:101B90000A51204600F0ACF894F80A0170BD257A8D
:101BA000EFE770B51D4613460A460446002100F0D3
:101BB00042F88B220121204600F06DF8206800F0E9
:101BC00028F958B11221204600F056F8204600F0BE
:101BD0008FF8204600F0A2F9012070BD6D1E03D0E1
:101BE000012000F014F9E9E7206800F01CF9204614
:101BF00000F000F9002070BD2DE9F0411E461746A7
:101C00000C460546012B14D90021286800F051F933
:101C10002146286800F01FF9002404E000F02DF9A7
:101C20003855641CE4B22868B442F7D3012100F0AF
:101C300040F9BDE8F0812DE9F0411E4617460C46FB
:101C40000546012B16D90021286800F032F944F02E
:101C50008001286800F0FFF8002405E0395D28685D
:101C600000F0F9F8641CE4B2B442F7D3012128680B
:101C700000F01FF9BDE8F08170B50446006800F07F
:101C8000EAF8206800F0F9F805460121206800F024
:101C900010F9284670BD70B50D460446164600681A
:101CA000002100F006F945F08001206800F0D3F82B
:101CB0003146206800F0CFF80121206800F0F9F8E3
:101CC00070BD2DE9F0470446DDE908891D4616463A
:101CD0000F46006800F0F7F827716671A57184F867
:101CE000078084F808902046BDE8F04700F082B8ED
:101CF000FF221221FFF7CFBF2DE9F0411C46154608
:101D00000F468046069E00F000F90F2000F07FF895
:101D1000404600F078F8364907EB470042180323A5
:101D200006214046FFF787FF31480921C01C425D6C
:101D30004046FFF7B0FF0B2211464046FFF7ABFFCE
:101D400023220C214046FFF7A6FF294D0727ED1D52
:101D5000E81D295D805D06292BD0022101EB0010D2
:101D6000C2B21D214046FFF796FF285D1E2107EBFA
:101D70000010C2B24046FFF78EFFFF221F214046EF
:101D8000FFF789FF002220214046FFF784FF0C2245
:101D900021214046FFF77FFF012241214046FFF706
:101DA0007AFF0021404688F80A11BDE8F04100F0B2
:101DB000B5B8032101EB0010C2B21D214046FFF768
:101DC0006AFF285D1E2107EB0010C2B24046FFF7F4
:101DD00062FF31214046FFF74FFF00F0F80040F06E
:101DE000050231214046FFF756FF0C223721C1E79B
:101DF000F42E000808B5C179009183794279017900
:101E0000FFF77AFF08BD88220121FFF744BFFEF7E4
:101E10004BBD10B50189C06889B2FEF735FE0128B7
:101E200000D0002010BD10B50446012100F041F89B
:101E30002088002281B26068FEF72BFE0120FFF7A8
:101E4000E6FF2088012281B26068FEF722FE64204E
:101E5000FFF7DDFF10BD13B50446002100F029F89F
:101E60004FF47A73012201A9A069FFF7C9F9A069AB
:101E7000FFF756F90128FAD11CBD3EB504460020F3
:101E80008DF808008DF804000146204600F011F896
:101E90004FF47A700090012301AA02A9A069FFF70C
:101EA00063FAA069FFF73CF90128FAD19DF8040014
:101EB0003EBD012905D00022018A406989B2FEF7A2
:101EC000E8BD0122F8E710B504460121FFF7F1FF54
:101ED0002088012281B26068BDE81040FEF7D9BDBC
:101EE00070B5054690F80A0114460E46A04200D08F
:101EF0000446224605F10A013046FEF723F9002088
:101F0000305585F80A01204670BD10B504460822F8
:101F10000121FFF7C0FE0020607210BD10B504461D
:101F200009220121FFF7B7FE0120607210BD10B534
:101F3000FEF7BAFDBDE81040FFF723BB30B58FB008
:101F400001210804CDE90010002402940225049127
:101F5000CDE907504FF4E01009906846FEF75EFFA8
:101F600000B1FEE70F20CDE90A054FF48060CDE90E
:101F70000C4002210AA80E94FEF74AFE00B1FEE7CB
:101F8000FEF7F0FE4FF47A71B0FBF1F0FFF7E5FADF
:101F90000420FFF7D5FA00221146501EFEF706FE78
:101FA0000FB030BD0D48016841F00101016041688A
:101FB0000B4A1140416001680A4A11400160016802
:101FC00021F480210160416821F4FE0141604FF459
:101FD0001F0181600449C00308607047001002407F
:101FE0000000FFF8FFFFF6FE08ED00E02DE9F041EC
:101FF000044600680169E26821F44051114301611F
:102000002169A0680843616908432168CA6841F2F0
:102010000C639A430243CA6020684169A26921F4B3
:102020004071114341614C49206864253226884241
:102030003CD1FEF7ADFE00EBC00101EB0010616882
:102040008900B0FBF1F7FEF7A3FE00EBC00101EB46
:1020500000106168B0468900B0FBF1F0B0FBF5F00C
:102060006FF01801484307EB800106EB0110B0FB4D
:10207000F5F000F0F006FEF78BFE00EBC00101EB7F
:10208000001061688900B0FBF1F0B0FBF5F006EBE1
:102090000016FEF77DFE00EBC00101EB0010616849
:1020A0008900B0FBF1F7FEF773FE3BE0FEF760FE40
:1020B00000EBC00101EB001061688900B0FBF1F793
:1020C000FEF756FE00EBC00101EB00106168B04660
:1020D0008900B0FBF1F0B0FBF5F06FF01801484358
:1020E00007EB800106EB0110B0FBF5F000F0F00605
:1020F000FEF73EFE00EBC00101EB001061688900B5
:10210000B0FBF1F0B0FBF5F006EB0016FEF730FE89
:1021100000EBC00101EB001061688900B0FBF1F732
:10212000FEF726FE00EBC00101EB0010616889009C
:10213000B0FBF1F0B0FBF5F06FF01801484307EB8E
:10214000800108EB0110B0FBF5F0216800F00F00F2
:1021500030448860BDE8F081003801402DE9F0414D
:10216000984617460E460446069D1DE0681C1BD087
:102170002DB1FEF793FCA0EB0800A84214D920680B
:10218000C16821F4D071C1602068416921F001016A
:102190004161202084F8390084F83A00002084F856
:1021A00038000320BDE8F0812068006836EA0000AE
:1021B00004D00020B842D9D00020F3E70120F9E78D
:1021C000FEE700000FB4054B10B503A9044A0298BE
:1021D00000F0EEF810BC5DF814FB0000E92A0008DE
:1021E000380000200FB4084B10B504A902AA0398C8
:1021F00000F0DEF8044602A9002000F070FC204642
:1022000010BC5DF814FB0000DF2A000802E008C8DB
:10221000121F08C1002AFAD170477047002001E060
:1022200001C1121F002AFBD1704700002DE9FF5F9A
:1022300082B00021DDE90430020DDDF840B0034337
:1022400018D044F61050A2F2FF32424315141198F0
:1022500001281FD0A5EB0B00401C5FEA000A4FF0DD
:1022600000064E4FDFF83891B046504615D5CAF1FA
:10227000000413E0119801244AA3012801D16FEA58
:102280000B010298119AC0E90031C0E9024206B080
:10229000BDE8F09FCBF10000DFE704460021404A93
:1022A000491842EB0450CDE9001012E0E00707D0D6
:1022B00032463B4640464946FEF7D7F880468946B7
:1022C00032463B4610461946FEF7CFF806460F4603
:1022D0006410002CEAD1DDE90401DDE90023BAF144
:1022E000000F06DAFEF7C1F842464B46FEF7BDF88E
:1022F00005E0FEF72CF942464B46FEF728F9044666
:102300000E460022284BFEF7A9F903D84FF0FF3004
:10231000014607E00022254B20463146FDF7FEFF2F
:10232000FEF784F9102409E0002C0ADB0A220023BE
:10233000FDF78CFF039B30321A55641E50EA0102F0
:10234000F2D1641C039AC4F111031444119A012AB6
:1023500003D0012208430DD10AE0084304D0002035
:102360004FF0110B119072E7A3EB0B056D1E0DE002
:102370005B4504DD4FF0000205F1010504E003DADE
:102380004FF00002A5F10105002AECD00298119946
:10239000C0E90231C0E9004579E7000000001440BF
:1023A0000000F03F300000000000F0430000E03F7C
:1023B0002DE9FF4F95B09B468946064600250FE262
:1023C000252877D100242746F84A0121059400E00A
:1023D000044316F8013F203B01FA03F01042F7D105
:1023E00030782A2811D06FF02F033078A0F1300216
:1023F000092A16D8059A44F0020402EB820203EB84
:1024000042021044761C0590EFE759F8042B059220
:10241000002A03DA504244F40054059044F00204C8
:10242000761C30782E2816D116F8010F44F00404DB
:102430002A280DD06FF02F023078A0F13003092B3D
:1024400009D807EB870302EB4303C718761CF3E7B1
:1024500059F8047B761C30786C280FD006DC4C28A9
:1024600017D068280DD06A2814D104E0742810D041
:102470007A280FD10DE044F400140AE044F48014EB
:1024800001E044F440147278824202D104F58014D1
:10249000761C761C307866280BD013DC582877D051
:1024A00009DC002875D04528F6D04628F4D0472806
:1024B0001AD19DE118E0632835D0642879D06528C9
:1024C00012D195E1702873D008DC6728F1D0692813
:1024D0006FD06E280DD06F2806D1B5E073282CD0B0
:1024E000752875D0782874D05A46179990476D1C76
:1024F00075E1C4F30250022809D003280DD0D9F8A1
:10250000001004280DD00D6009F1040967E1D9F825
:102510000010EA17C1E90052F6E7D9F800100D8063
:10252000F2E70D70F0E719F8041B8DF80010002099
:102530008DF80100EA46012003E059F804AB4FF0A2
:10254000FF3061074FF0000102D40DE008F10101F6
:102550008846B9420FDA8045F8DB1AF808100029DE
:10256000F4D108E008F1010188468142FADB1AF84B
:1025700008100029F6D105985B46A0EB0807214614
:102580003846179A00F094FA284400EB080507E053
:102590004DE029E10DE01AF8010B5A4617999047D2
:1025A000B8F10108F7D25B4621463846179A13E185
:1025B00042E00A220092C4F302524FF0000A022ABB
:1025C00008D059F804CB032A4FEAEC710AD00DE089
:1025D00029E02AE009F1070121F00702F2E802C12F
:1025E000914609E00FFA8CFC4FEAEC71042A03D102
:1025F0004FFA8CFC4FEAEC71002907DA0A460021F9
:10260000DCF1000C61EB02012D2202E0220504D571
:102610002B228DF80420012203E0E20701D02022C2
:10262000F7E7904659E00A2102E010220DE0102160
:102630004FF0000A00910BE010224FF0000A44F026
:1026400004040827009203E008224FF0000A0092D9
:10265000C4F30252022A05D059F804CB0021032A00
:1026600008D009E009F1070121F00702F2E802C1F0
:10267000914605E01FFA8CFC042A01D10CF0FF0CF6
:102680004FF00008220728D5702806D0009B83F061
:10269000100353EA0A0305D00EE040228DF804200F
:1026A000012208E05CEA010206D030228DF8042005
:1026B0008DF8050002229046009B83F0080353EA40
:1026C0000A030AD15CEA010201D1620705D5302272
:1026D0008DF804204FF001087F1E582804D034A044
:1026E00003900EA802900DE036A0F9E7534660462D
:1026F000009AFDF7ABFD84460398825C0298401E69
:10270000029002705CEA0100F0D1029806A9081A52
:1027100000F1200A600702D524F4803400E001278C
:10272000574502DDA7EB0A0000E0002000EB0A019C
:10273000009005984144401A0590E00306D45B469A
:102740002146179A059800F0B3F90544002706E0E2
:1027500001A85A46C05D179990476D1C7F1C4745DC
:10276000F6DBE0030CD55B462146179A059800F08E
:102770009FF9054404E030205A46179990476D1C94
:102780000099481E00900029F5DC08E002980299A3
:102790005A460078491C0291179990476D1CBAF16E
:1027A0000001AAF1010AF1DC65E10000092801003D
:1027B00030313233343536373839616263646566B7
:1027C0000000000030313233343536373839414279
:1027D000434445460000000000F058F90544761CCB
:1027E000307800287FF4ECAD19B02846BDE8F08FB2
:1027F000620700D4062709F1070222F0070CFCE863
:102800000223E14603F000485FEA080C02D00FF211
:10281000702C0DE05FEA045C02D50FF2682C07E033
:102820005FEAC47C02D00FF2602C01E0AFF2700CC2
:102830004FF0FF3823F00043CDF850C065280CD08E
:1028400006DC452809D046281DD047283DD13DE06B
:10285000662818D067287ED138E00021112F01DBCF
:10286000112000E0781CCDE9000106A90EA8FFF7B1
:10287000DDFCDDE90F010E9A03910021009207F1C2
:10288000010A04914DE04FF000400097CDE901109E
:1028900006A90EA8FFF7CAFCDDE90F0203920E9B02
:1028A00011990022DDF80CA00093049211B9791C53
:1028B00000EB010AB7EB0A0004D4C0F1FF3007F1C6
:1028C000010A0490AAEB0700019044E0012F00DA0E
:1028D00001270021112F01DD112000E03846CDE94C
:1028E000000106A90EA8FFF7A1FCDDE90F010E9A71
:1028F0000391002104910092BA4621070CD4039958
:10290000514500DA8A46BAF1010F05DD009AAAF1B5
:102910000101515C302908D0B84202DA10F1040FED
:1029200006DA0121CDE9011015E0AAF10101E9E77C
:10293000002805DC049901440491AAEB000102E09F
:10294000411C514500DD8A460499401A401C019003
:102950004FF000400290200704D40198504501DB5D
:10296000CDF8048000208DF84F0002980DF14F073C
:10297000B0F1004F25D02B200E9002984FF00208A6
:1029800000280CDA404202902D200E9007E00A2128
:102990000298FDF745FC3031029007F8011DB8F1AF
:1029A0000001A8F10108F2DC02980028EFD1791E9D
:1029B0000E980870307800F0200040F0450007F8CD
:1029C000020D12A8C01B00F107081498007800B18E
:1029D000012000EB0A01019801EBE07105984144E8
:1029E000401A401E0590E00306D45B462146179A24
:1029F000059800F05DF805441498007818B15A461F
:102A0000179990476D1CE00324D55B462146179A21
:102A1000059800F04DF805441CE00498002807DBF9
:102A2000DDE90301884203DD0098405C179901E06D
:102A3000179930205A469047049805F10105401C2B
:102A400004900198401E019004D12E205A461799F7
:102A500090476D1CBAF10001AAF1010ADDDC05E026
:102A600017F8010B5A46179990476D1CB8F10001F1
:102A7000A8F10108F4DC5B462146179A0598ABE6FD
:102A80002D0000002B000000200000002DE9F04187
:102A9000044600251E461746880404D405E039463E
:102AA0002020B0476D1C641EF9D52846BDE8F08192
:102AB0002DE9F041044600251E469046C80301D585
:102AC000302700E02027880404D505E04146384639
:102AD000B0476D1C641EF9D52846BDE8F0810A6830
:102AE000531C0B601070704713B5642301226946B4
:102AF0000248FEF7BDFD00981CBD000094000020B8
:102B000088B0FDF7D9FFFFF719FAFEF70FFE8D48E1
:102B10008B494FF4E13500240160C0E901540C26D3
:102B2000C460C0E904468461C461FEF72EFD00B1B3
:102B3000FEE78448844940300160C0E90154C46024
:102B4000C0E904468461C461FEF71FFD00B1FEE7E1
:102B5000FEF756FEFDF72CFEFDF73AFE7B4C0421F6
:102B60002046FDF791FF7A4D012868606BD079A06F
:102B7000FFF728FB012204212046FDF78AFF714858
:102B800002218030C0E902147649416110210161BF
:102B90000121C0E90014A0F1D8018161F43108607D
:102BA00071A0FFF70FFB0D210720CDE9000165485B
:102BB00001231A4600219C30FFF783F871A0FFF72C
:102BC00001FB68684FF4FA6701285E483A464FF007
:102BD000100100F19C003BD0FEF72AFFA86071A015
:102BE000FFF7F0FA00244FF47A763046FDF728FE1E
:102BF000641CB442F9DB686801282CD06EA0FFF792
:102C0000E1FA3046FDF750FE6EA0FFF7DBFA4D48C3
:102C10009C30FEF799FF0146286170A0FFF7D2FAB9
:102C2000286900280ADD7249C2B2A1F5B870FFF721
:102C300057F96F4A6FA02969FFF7C4FA73A000BF64
:102C4000FFF7C0FAD7E777A0FFF7BCFA002292E7B8
:102C5000FEF73AFFC2E706A8FEF736FE01280AD0C3
:102C600074A0FFF7AFFA00243046FDF7E9FD641CBD
:102C7000B442F9DBBFE773A0FFF7A4FA9DF819008F
:102C800000909DF818309DF81B209DF81A1071A037
:102C9000FFF798FA9DF81A00A8619DF81B00FDF750
:102CA000A7FA28629DF81800E8619DF81900FDF761
:102CB0009FFA002468623046FDF7C2FD641CB442EE
:102CC000F9DB6EA0FFF77EFADFF8C891686A494623
:102CD000FDF75CFAFDF791FA044688464946286AF2
:102CE000FDF754FAFDF789FACDE90448EA698DE861
:102CF00007003F4868A16438AB692A68FFF772FA99
:102D0000C1B268610F483A469C30FEF7DDFE0146CD
:102D1000E86066A0FFF756FA354967A06439FFF707
:102D200051FA33492A7D64393B46A1F58670FEF796
:102D300038FF0146E86065A0FFF744FA68A07FE726
:102D4000003801409400002000440040000C014085
:102D5000000000204D6F64653A20536C6176650D6C
:102D60000A00000000080140436F6E6669677572D3
:102D7000696E67204C6F5261206D6F64756C650DD4
:102D80000A000000446F6E6520636F6E66696775A8
:102D900072696E67204C6F52614D6F64756C650D82
:102DA0000A0000000D0A20636865636B20445448E4
:102DB00031310D0A00000000536C617665202E2E23
:102DC0002E0D0A00526563656976696E6720706131
:102DD000636B6167652E2E2E0D0A000052656365D8
:102DE000697665645F54656D703A2025640D0A004C
:102DF000A0020020436F6E74656E745F54656D7041
:102E000020282564293A2025730D0A005061636B40
:102E1000616765207265636569766564202E2E2E74
:102E20000D0A00004D6F64653A204D617374657240
:102E30000D0A00000D0A3F3F44485431313F3F0D19
:102E40000A0000004D6173746572202E2E2E0D0A4B
:102E5000000000000D0A4448543131210D0A0D0ACA
:102E60002025642E256420255248202C2025642E00
:102E70002564202A43200D0A0000000053656E647B
:102E8000696E67207061636B6167652E2E2E0D0A77
:102E9000000000000000C8422564256425322E3061
:102EA00066256425322E306600000000456E74727F
:102EB000793A2025640D0A0054656D70202620485B
:102EC000756D69203A2025730D0A00005472616EF9
:102ED000736D697373696F6E3A2025640D0A000083
:102EE0005061636B6167652073656E742E2E2E0DC5
:102EF0000A0A00006C8000FFFCF9F6060708090AC0
:102F00000B0C00010203040506070809000000007D
:102F10000000000001020304060708090000000089
:102F200001020304442F0008000000203C000000C0
:102F30000C220008802F00083C000020CC06000076
:102F40001C2200080100000000000000000000003A
:102F50000000000000000000000000000000000071
:102F60000000000000000000000000000100000060
:102F7000100000000000000000A24A040000000051
:04000005080000ED02
:00000001FF
